S0150000436F64655F56555F6D657465722E737265630E
S11300000C9461000C947E000C947E000C947E0091
S11300100C947E000C947E000C947E000C94B00230
S11300200C947E000C947E000C947E000C947E0054
S11300300C947E000C947E000C947E000C947E0044
S11300400C947E000C947E000C944D030C942F03AE
S11300500C947E000C9428010C947E000C947E0079
S11300600C947E000C947E0008000000BE9224498B
S1130070123EABAAAA2ABECDCCCC4C3E00000080D6
S1130080BEABAAAAAA3E00000000BF000000803F49
S11300900000000000084178D3BB4387D1133D1909
S11300A00E3CC3BD4282AD2B3E68EC8276BED98F36
S11300B0E1A93E4C80EFFFBE01C4FF7F3F0000007A
S11300C0000011241FBECFEFD8E0DEBFCDBF11E08A
S11300D0A0E0B1E0E2EFFCE002C005900D92A83090
S11300E0B107D9F721E0A8E0B1E001C01D92AC3A14
S11300F0B207E1F70E948C000C9477060C94000080
S11301005C98FC018181811102C05F9801C05F9AF3
S11301105D9A5D985C9A08950E9468030E94C600E7
S11301200E94D5000E94AC000E94E60086E0809305
S1130130C20088E08093C4001092C50088E98093CF
S1130140C1007894A8958FE39CE90197F1F700C06A
S113015000000E94E700F6CFECE7F0E01082808117
S11301608F738083EBE7F0E080818B7F80838081D5
S113017083608083EAE7F0E0808187608083808108
S1130180886A8083808180648083089516BC84B5E6
S1130190826084BD84B58F7384BD85B58B7F85BD36
S11301A083E085BD8AEF87BD08951092B200E0EB2D
S11301B0F0E080818260808380818F73808387E018
S11301C08093B1008AEF8093B3000895089582E08C
S11301D091E00E94020320E030E040E85FE3609198
S11301E012017091130180911401909115010E94E4
S11301F078030E94480520E030E040EA51E40E9480
S1130200A00520E030E040EA52E40E94A0052DEC75
S11302103CEC40E752E40E94E9030E945B04CB01FA
S11302200E94120384E091E00E94020360910C0199
S113023070910D0180910E0190910F010E945B0459
S1130240CB010E94120386E091E00E94020308950C
S11302501F920F920FB60F9211244F925F926F92DA
S11302607F928F929F92AF92BF92EF92FF920F93E1
S11302701F932F933F934F935F936F937F938F932A
S11302809F93AF93BF93EF93FF93CF93DF9300D0EC
S113029000D0CDB7DEB7E0907800F090790082E02E
S11302A085BB80917C00877009F006C180910A01AA
S11302B090910B01E816F90614F4E12CF12C8091CD
S11302C00001909101019701289F7001299FF00C72
S11302D0389FF00C11248090120190901301A0908B
S11302E01401B0901501B7010F2C000C880B990B69
S11302F00E949304A50194010E94770320E030E05A
S113030040E85EE30E94A005A50194010E947803E1
S11303102B013C016093120170931301809314012B
S11303209093150120E030E040E85FE30E947803F9
S11303300E94480520E030E040EA51E40E94A00514
S113034020E030E040EA52E40E94A0052DEC3CECB1
S113035040E752E40E94E9034B015C016091100103
S113036070911101072E000C880B990B0E949304C5
S113037022E03BE24FE151E40E94A00520E030E09E
S113038046E154E40E94430518168CF580910C0153
S113039090910D01A0910E01B0910F0189839A8370
S11303A0AB83BC832DEC3CEC4CE45EE3BC01CD019F
S11303B00E94E40388234CF410920C0110920D0166
S11303C010920E0110920F0112C02DEC3CEC4CE483
S11303D05EE369817A818B819C810E9477036093BB
S11303E00C0170930D0180930E0190930F012091E5
S11303F00C0130910D0140910E0150910F01C50186
S1130400B4010E944305181664F480920C01909282
S11304100D01A0920E01B0920F01109211011092E1
S11304201001809110019091110101969093110196
S11304308093100120E030E0A901C501B4010E94BD
S113044043051816E4F41A82198210E001E0A98128
S1130450BA81A85EBE4F0C931F5FE12FF0E0FA83D0
S1130460E983BF01FF0F880B990B0E9493049B0142
S1130470AC01C501B4010E944305181644F3C3013D
S1130480B2010E946204603540F4E62FF0E0E85EB9
S1130490FE4F10826F5F6035C1F760910C0170915F
S11304A00D0180910E0190910F010E945B04FB01EC
S11304B0E85EFE4F81E0808380917C00877081300C
S11304C009F5B7010F2C000C880B990B0E949304BB
S11304D020E030E040EC5FE30E94A00520E030EC37
S11304E04FE754E40E94E90320E030E040E05FE39A
S11304F00E9478030E945B047093010160930001E1
S113050010927C0080917C008770823031F4F092EC
S11305100B01E0920A0110927C000F900F900F9053
S11305200F90DF91CF91FF91EF91BF91AF919F9188
S11305308F917F916F915F914F913F912F911F9177
S11305400F91FF90EF90BF90AF909F908F907F900E
S11305506F905F904F900F900FBE0F901F90189563
S11305601F920F920FB60F9211242F933F934F9324
S11305705F936F937F938F939F93AF93BF93EF9307
S1130580FF9388E191E00E9480008091080180FF40
S113059004C081E080937C0003C082E080937C00EF
S11305A0809108019091090101969093090180932B
S11305B00801FF91EF91BF91AF919F918F917F912E
S11305C06F915F914F913F912F910F900FBE0F90BC
S11305D01F90189590918A019F5F9F7120918801C7
S11305E09217E1F3E92FF0E0E457FE4F80832FB731
S11305F0F89490938A01E1ECF0E08081806280833A
S11306002FBF0895CF93DF93EC012196FC018081E5
S1130610882329F00E94EA0289918111FBCFDF919E
S1130620CF910895CF93DF93CDB7DEB727970FB659
S1130630F894DEBF0FBECDBF4AE0BE016F5F7F4FAF
S11306400E944206CE0101960E94020327960FB62D
S1130650F894DEBF0FBECDBFDF91CF9108950F9305
S11306600FB7EF93FF93E0918801F0918A01E3952E
S1130670EF71EF1305C0F091C100FF7DF093C1004D
S1130680E0938801F0E0E457FE4FE081E093C60078
S1130690FF91EF910FBF0F9118950F930FB79F9391
S11306A09091C600EF93FF93E0918B01F091890143
S11306B0E395EF71FE1731F0E0938B01F0E0E85918
S11306C0FE4F9083FF91EF919F910FBF0F9118956B
S11306D0E0E6F0E080818860808380818F7B808386
S11306E080818560808380818D7F808308955058C8
S11306F0BB27AA270E948F030C9409050E94FB04C0
S113070038F00E94020520F039F49F3F19F426F4D2
S11307100C94F8040EF4E095E7FB0C94F204E92F32
S11307200E941A0558F3BA176207730784079507DE
S113073020F079F4A6F50C943C050EF4E0950B2E0C
S1130740BA2FA02D0B01B90190010C01CA01A0011F
S11307501124FF27591B99F0593F50F4503E68F17A
S11307601A16F040A22F232F342F4427585FF3CFBB
S1130770469537952795A795F0405395C9F77EF48C
S11307801F16BA0B620B730B840BBAF09150A1F0D5
S1130790FF0FBB1F661F771F881FC2F70EC0BA0F5B
S11307A0621F731F841F48F4879577956795B795E3
S11307B0F7959E3F08F0B0CF9395880F08F09927DE
S11307C0EE0F9795879508950E94CE0408F481E072
S11307D008950E94FD030C9409050E94020558F037
S11307E00E94FB0440F029F45F3F29F00C94F204CA
S11307F051110C943D050C94F8040E941A0568F3F9
S11308009923B1F3552391F3951B550BBB27AA27C5
S113081062177307840738F09F5F5F4F220F331FFF
S1130820441FAA1FA9F335D00E2E3AF0E0E832D0C7
S113083091505040E695001CCAF72BD0FE2F29D0CA
S1130840660F771F881FBB1F261737074807AB079C
S1130850B0E809F0BB0B802DBF01FF2793585F4F11
S11308603AF09E3F510578F00C94F2040C943D0547
S11308705F3FE4F3983ED4F3869577956795B795F3
S1130880F7959F5FC9F7880F911D9695879597F9FE
S11308900895E1E0660F771F881FBB1F6217730777
S11308A08407BA0720F0621B730B840BBA0BEE1F8C
S11308B088F7E09508950E9462046894B1110C943D
S11308C03D0508950E94220588F09F5798F0B92F9E
S11308D09927B751B0F0E1F0660F771F881F991F71
S11308E01AF0BA95C9F714C0B13091F00E943C05D2
S11308F0B1E008950C943C05672F782F8827B85FE2
S113090039F0B93FCCF3869577956795B395D9F7C8
S11309103EF490958095709561957F4F8F4F9F4FD2
S11309200895E89409C097FB3EF4909580957095DE
S113093061957F4F8F4F9F4F9923A9F0F92F96E927
S1130940BB279395F695879577956795B795F1119C
S1130950F8CFFAF4BB0F11F460FF1BC06F5F7F4F39
S11309608F4F9F4F16C0882311F096E911C077234B
S113097021F09EE8872F762F05C0662371F096E854
S1130980862F70E060E02AF09A95660F771F881F23
S1130990DAF7880F9695879597F90895990F0008C7
S11309A0550FAA0BE0E8FEEF16161706E807F9073D
S11309B0C0F012161306E407F50798F0621B730BD8
S11309C0840B950B39F40A2661F0232B242B252B59
S11309D021F408950A2609F4A140A6958FEF811DFC
S11309E0811D089597F99F6780E870E060E008959D
S11309F09FEF80EC089500240A9416161706180633
S1130A000906089500240A9412161306140605060E
S1130A100895092E0394000C11F4882352F0BB0F9F
S1130A2040F4BF2B11F460FF04C06F5F7F4F8F4F02
S1130A309F4F089557FD9058440F551F59F05F3F3D
S1130A4071F04795880F97FB991F61F09F3F79F0EC
S1130A5087950895121613061406551FF2CF46956E
S1130A60F1DF08C0161617061806991FF1CF8695F0
S1130A707105610508940895E894BB2766277727D4
S1130A80CB0197F908950E94CE0408F48FEF0895DE
S1130A900E94580529ED3BE54EED5EE30C94A0055C
S1130AA016F00C940D060C94F80468940C94F2045B
S1130AB00E942205A8F39923C1F3AEF3DF93CF93E9
S1130AC01F930F93FF92C92FDD2788232AF02197C4
S1130AD0660F771F881FDAF720E030E040E85FEB0D
S1130AE09FE3883920F0803E38F021968F770E946A
S1130AF07803E8E6F0E004C00E947803E5E9F0E05A
S1130B000E941B068B01BE01EC01FB2E6F5771097D
S1130B107595771F880B990B0E94930428E132E79F
S1130B2041E35FE30E94B305AF2D9801AE01FF904E
S1130B300F911F91CF91DF910E948F030C940905AF
S1130B400E94B3050C9409050E94FB0438F00E942E
S1130B50020520F0952311F00C94F2040C94F8048F
S1130B6011240C943D050E941A0570F3959FC1F35E
S1130B70950F50E0551F629FF001729FBB27F00D47
S1130B80B11D639FAA27F00DB11DAA1F649F66279C
S1130B90B00DA11D661F829F2227B00DA11D621FEB
S1130BA0739FB00DA11D621F839FA00D611D221FA5
S1130BB0749F3327A00D611D231F849F600D211D89
S1130BC0822F762F6A2F11249F5750409AF0F1F00C
S1130BD088234AF0EE0FFF1FBB1F661F771F881F75
S1130BE091505040A9F79E3F510580F00C94F204B7
S1130BF00C943D055F3FE4F3983ED4F386957795D6
S1130C006795B795F795E7959F5FC1F7FE2B880F1A
S1130C10911D9695879597F908959F3F31F09150CE
S1130C2020F4879577956795B795880F911D9695CC
S1130C30879597F90895DF93CF931F930F93FF92AE
S1130C40EF92DF927B018C01689406C0DA2EEF01EB
S1130C500E94B305FE01E894A59125913591459133
S1130C605591A6F3EF010E948F03FE019701A8019D
S1130C70DA9469F7DF90EF90FF900F911F91CF9175
S1130C80DF910895BB274A3031F4992322F4BDE261
S1130C90909581959F4F0C944E06BB27FB015527D9
S1130CA0AA27880F991FAA1FA41710F0A41B8395C5
S1130CB05051B9F7A05DAA3308F0A95DA19300973C
S1130CC079F7B111B1931192CB010C946706DC0151
S1130CD0FC01672F71917723E1F7329704C07C916F
S1130CE06D9370836291AE17BF07C8F30895F894AB
S1050CF0FFCF30
S10B0CF20100240020003B0076
S9030000FC
