:100000000C9461000C947E000C947E000C947E0095
:100010000C947E000C947E000C947E000C947E0068
:100020000C947E000C947E000C947E000C947E0058
:100030000C947E000C947E000C947E000C947E0048
:100040000C947E000C947E000C94A6020C94880202
:100050000C947E000C9412010C947E000C947E0093
:100060000C947E000C947E0008000000BE9224498F
:10007000123EABAAAA2ABECDCCCC4C3E00000080DA
:10008000BEABAAAAAA3E00000000BF000000803F4D
:100090000000000000084178D3BB4387D1133D190D
:1000A0000E3CC3BD4282AD2B3E68EC8276BED98F3A
:1000B000E1A93E4C80EFFFBE01C4FF7F3F0000007E
:1000C000000011241FBECFEFD8E0DEBFCDBF11E08E
:1000D000A0E0B1E0E6E8FBE002C005900D92A6309A
:1000E000B107D9F721E0A6E0B1E001C01D92A63A20
:1000F000B207E1F70E948C000C94C1050C9400003B
:100100005C98FC018181811102C05F9801C05F9AF7
:100110005D9A5D985C9A08950E94C1000E94A700B4
:100120000E94D00086E08093C20088E08093C400E3
:100130001092C50088E98093C10078948FE39CE910
:100140000197F1F700C000000E94D100F7CFECE763
:10015000F0E0108280818F738083EBE7F0E0808194
:100160008B7F8083808183608083EAE7F0E08081F9
:10017000876080838081886A8083808180648083B7
:10018000089516BC84B5826084BD84B58F7384BD28
:1001900085B58B7F85BD83E085BD8AEF87BD0895DA
:1001A000089580E091E00E945B0220E030E040E8AA
:1001B0005FE360910C0170910D0180910E019091AF
:1001C0000F010E94C2020E94920420E030E040EA47
:1001D00051E40E94EA0420E030E040EA52E40E9448
:1001E000EA042DEC3CEC40E752E40E9433030E9409
:1001F000A503CB010E946B0282E091E00E945B02AA
:1002000060910601709107018091080190910901A8
:100210000E94A503CB010E946B0284E091E00E9442
:100220005B0208951F920F920FB60F9211244F9206
:100230005F926F927F928F929F92AF92BF92CF9276
:10024000DF92EF92FF920F931F932F933F934F9361
:100250005F936F937F938F939F93AF93BF93CF934E
:10026000DF93EF93FF9382E085BB609178007091FC
:100270007900C0900C01D0900D01E0900E01F0903B
:100280000F0180E090E00E94DB03A70196010E942D
:10029000C10220E030E040E85EE30E94EA04A701EA
:1002A00096010E94C2024B015C0160930C017093A5
:1002B0000D0180930E0190930F0120E030E040E8A3
:1002C0005FE30E94C2020E94920420E030E040EA14
:1002D00051E40E94EA0420E030E040EA52E40E9447
:1002E000EA042DEC3CEC40E752E40E9433036B013E
:1002F0007C0160910A0170910B01072E000C880BA4
:10030000990B0E94DD0322E03BE24FE151E40E94A1
:10031000EA0420E030E046E154E40E948D0418161F
:100320005CF54090060150900701609008017090C4
:1003300009012DEC3CEC4CE45EE3C301B2010E94E8
:100340002E0388234CF4109206011092070110929C
:1003500008011092090110C02DEC3CEC4CE45EE366
:10036000C301B2010E94C1026093060170930701AC
:1003700080930801909309012091060130910701B3
:100380004091080150910901C701B6010E948D04F6
:10039000181664F4C0920601D0920701E092080199
:1003A000F092090110920B0110920A0180910A014A
:1003B00090910B01019690930B0180930A0120E02C
:1003C00030E0A901C701B6010E948D041816CCF4D3
:1003D000C0E0D0E010E001E0CE5EDE4F08831F5F9A
:1003E000C12FD0E0BE010D2E000C880B990B0E948E
:1003F000DD039B01AC01C701B6010E948D041816F4
:100400005CF3C501B4010E94AC03603540F4E62FF3
:10041000F0E0EE5EFE4F10826F5F6035C1F76091D5
:1004200006017091070180910801909109010E94D5
:10043000A503FB01EE5EFE4F81E0808382E191E047
:100440000E948000FF91EF91DF91CF91BF91AF911A
:100450009F918F917F916F915F914F913F912F91DC
:100460001F910F91FF90EF90DF90CF90BF90AF90D2
:100470009F908F907F906F905F904F900F900FBEE6
:100480000F901F901895909184019F5F9F7120910C
:1004900082019217E1F3E92FF0E0EA57FE4F8083E3
:1004A0002FB7F89490938401E1ECF0E080818062B2
:1004B00080832FBF0895CF93DF93EC012196FC0139
:1004C0008081882329F00E94430289918111FBCF0A
:1004D000DF91CF910895CF93DF93CDB7DEB7279704
:1004E0000FB6F894DEBF0FBECDBF4AE0BE016F5F0E
:1004F0007F4F0E948C05CE0101960E945B022796D9
:100500000FB6F894DEBF0FBECDBFDF91CF91089537
:100510000F930FB7EF93FF93E0918201F091840165
:10052000E395EF71EF1305C0F091C100FF7DF093EB
:10053000C100E0938201F0E0EA57FE4FE081E093D2
:10054000C600FF91EF910FBF0F9118950F930FB752
:100550009F939091C600EF93FF93E0918501F091F6
:100560008301E395EF71FE1731F0E0938501F0E030
:10057000EE59FE4F9083FF91EF919F910FBF0F9126
:1005800018955058BB27AA270E94D9020C945304EF
:100590000E94450438F00E944C0420F039F49F3F3B
:1005A00019F426F40C9442040EF4E095E7FB0C9445
:1005B0003C04E92F0E94640458F3BA1762077307DA
:1005C0008407950720F079F4A6F50C9486040EF4C0
:1005D000E0950B2EBA2FA02D0B01B90190010C0153
:1005E000CA01A0011124FF27591B99F0593F50F46B
:1005F000503E68F11A16F040A22F232F342F4427C3
:10060000585FF3CF469537952795A795F0405395BA
:10061000C9F77EF41F16BA0B620B730B840BBAF08A
:100620009150A1F0FF0FBB1F661F771F881FC2F7F5
:100630000EC0BA0F621F731F841F48F48795779509
:100640006795B795F7959E3F08F0B0CF9395880FC3
:1006500008F09927EE0F9795879508950E94180442
:1006600008F481E008950E9447030C9453040E940B
:100670004C0458F00E94450440F029F45F3F29F0F3
:100680000C943C0451110C9487040C9442040E9475
:10069000640468F39923B1F3552391F3951B550B2B
:1006A000BB27AA2762177307840738F09F5F5F4F45
:1006B000220F331F441FAA1FA9F335D00E2E3AF084
:1006C000E0E832D091505040E695001CCAF72BD09C
:1006D000FE2F29D0660F771F881FBB1F26173707ED
:1006E0004807AB07B0E809F0BB0B802DBF01FF271F
:1006F00093585F4F3AF09E3F510578F00C943C04BC
:100700000C9487045F3FE4F3983ED4F38695779585
:100710006795B795F7959F5FC9F7880F911D9695D7
:10072000879597F90895E1E0660F771F881FBB1F33
:10073000621773078407BA0720F0621B730B840BE0
:10074000BA0BEE1F88F7E09508950E94AC036894F9
:10075000B1110C94870408950E946C0488F09F578F
:1007600098F0B92F9927B751B0F0E1F0660F771FD5
:10077000881F991F1AF0BA95C9F714C0B13091F0CB
:100780000E948604B1E008950C948604672F782FA8
:100790008827B85F39F0B93FCCF386957795679590
:1007A000B395D9F73EF490958095709561957F4FFC
:1007B0008F4F9F4F0895E89409C097FB3EF49095A2
:1007C0008095709561957F4F8F4F9F4F9923A9F02A
:1007D000F92F96E9BB279395F695879577956795B9
:1007E000B795F111F8CFFAF4BB0F11F460FF1BC0FD
:1007F0006F5F7F4F8F4F9F4F16C0882311F096E990
:1008000011C0772321F09EE8872F762F05C066233D
:1008100071F096E8862F70E060E02AF09A95660FF6
:10082000771F881FDAF7880F9695879597F90895AF
:10083000990F0008550FAA0BE0E8FEEF16161706F1
:10084000E807F907C0F012161306E407F50798F059
:10085000621B730B840B950B39F40A2661F0232B72
:10086000242B252B21F408950A2609F4A140A695EE
:100870008FEF811D811D089597F99F6780E870E0D3
:1008800060E008959FEF80EC089500240A94161606
:10089000170618060906089500240A94121613066E
:1008A000140605060895092E0394000C11F48823FC
:1008B00052F0BB0F40F4BF2B11F460FF04C06F5F18
:1008C0007F4F8F4F9F4F089557FD9058440F551FEE
:1008D00059F05F3F71F04795880F97FB991F61F0C2
:1008E0009F3F79F087950895121613061406551F39
:1008F000F2CF4695F1DF08C0161617061806991FA5
:10090000F1CF86957105610508940895E894BB2799
:1009100066277727CB0197F908950E94180408F4F9
:100920008FEF08950E94A20429ED3BE54EED5EE3B2
:100930000C94EA0416F00C9457050C944204689445
:100940000C943C040E946C04A8F39923C1F3AEF309
:10095000DF93CF931F930F93FF92C92FDD27882337
:100960002AF02197660F771F881FDAF720E030E022
:1009700040E85FEB9FE3883920F0803E38F0219615
:100980008F770E94C202E8E6F0E004C00E94C20233
:10099000E5E9F0E00E9465058B01BE01EC01FB2E4C
:1009A0006F5771097595771F880B990B0E94DD03AE
:1009B00028E132E741E35FE30E94FD04AF2D980197
:1009C000AE01FF900F911F91CF91DF910E94D9024C
:1009D0000C9453040E94FD040C9453040E9445049B
:1009E00038F00E944C0420F0952311F00C943C0444
:1009F0000C94420411240C9487040E94640470F344
:100A0000959FC1F3950F50E0551F629FF001729FB3
:100A1000BB27F00DB11D639FAA27F00DB11DAA1FC2
:100A2000649F6627B00DA11D661F829F2227B00D0F
:100A3000A11D621F739FB00DA11D621F839FA00D9A
:100A4000611D221F749F3327A00D611D231F849FEA
:100A5000600D211D822F762F6A2F11249F57504041
:100A60009AF0F1F088234AF0EE0FFF1FBB1F661FBC
:100A7000771F881F91505040A9F79E3F510580F085
:100A80000C943C040C9487045F3FE4F3983ED4F349
:100A9000869577956795B795F795E7959F5FC1F729
:100AA000FE2B880F911D9695879597F908959F3F86
:100AB00031F0915020F4879577956795B795880F19
:100AC000911D9695879597F90895DF93CF931F937E
:100AD0000F93FF92EF92DF927B018C01689406C026
:100AE000DA2EEF010E94FD04FE01E894A591259104
:100AF000359145915591A6F3EF010E94D902FE016F
:100B00009701A801DA9469F7DF90EF90FF900F91B9
:100B10001F91CF91DF910895BB274A3031F499237B
:100B200022F4BDE2909581959F4F0C949805BB27C8
:100B3000FB015527AA27880F991FAA1FA41710F099
:100B4000A41B83955051B9F7A05DAA3308F0A95DA5
:100B5000A193009779F7B111B1931192CB010C9445
:100B6000B105DC01FC01672F71917723E1F7329722
:100B700004C07C916D9370836291AE17BF07C8F378
:060B80000895F894FFCF78
:060B8600240020003B00EA
:00000001FF
